:100000000C9434000C949D000C9446000C94460013
:100010000C9446000C9446000C9446000C94460048
:100020000C9446000C9446000C9446000C94460038
:100030000C9446000C9446000C9446000C94460028
:100040000C9446000C9446000C9446000C94460018
:100050000C9446000C9446000C9446000C94460008
:100060000C9446000C94460011241FBECFEFD8E03C
:10007000DEBFCDBF21E0A0E0B1E001C01D92A730FE
:10008000B207E1F70E9485000C9411020C94000065
:10009000BC0180E090E00E94F80020E030E040EAFF
:1000A00050E40E94390120E030E040E85AE30E9429
:1000B00039016093000170930101809302019093D4
:1000C00003010895EAE7F0E0808183608083ACE774
:1000D000B0E08C9180648C938081806880830895E7
:1000E000ECE7F0E09081907F90839081892B808372
:1000F000EAE7F0E0808180648083808184FFFDCF27
:10010000809178009091790008950E9495000E9456
:100110006200579AE4E6F0E080818E6E8083209A38
:1001200083B7817F846083BFFBCF7894E89AE9E648
:10013000F0E080818160808308951F920F920FB656
:100140000F9211242F933F934F935F936F937F935D
:100150008F939F93AF93BF93EF93FF934A9B36C0C8
:10016000109206015F9A2FE784E89EE121508040BB
:100170009040E1F700C0000080E090E00E94700035
:1001800090930501809304018091040190910501F1
:100190000E9448006091000170910101809102016C
:1001A0009091030120E030E040E250E40E943501EC
:1001B00018162CF4809106018F5F809306015F98DA
:1001C00080910601882319F0289A01C02898FF9190
:1001D000EF91BF91AF919F918F917F916F915F91BF
:1001E0004F913F912F910F900FBE0F901F90189538
:1001F000E89409C097FB3EF49095809570956195C1
:100200007F4F8F4F9F4F9923A9F0F92F96E9BB2776
:100210009395F695879577956795B795F111F8CFF2
:10022000FAF4BB0F11F460FF1BC06F5F7F4F8F4F5D
:100230009F4F16C0882311F096E911C0772321F053
:100240009EE8872F762F05C0662371F096E8862FEB
:1002500070E060E02AF09A95660F771F881FDAF742
:10026000880F9695879597F9089566D008F48FEFD3
:1002700008950BD09CC08DD028F092D018F0952313
:1002800009F07EC083C01124C6C0A2D0A0F3959F00
:10029000D1F3950F50E0551F629FF001729FBB276D
:1002A000F00DB11D639FAA27F00DB11DAA1F649F19
:1002B0006627B00DA11D661F829F2227B00DA11DCC
:1002C000621F739FB00DA11D621F839FA00D611D52
:1002D000221F749F3327A00D611D231F849F600D73
:1002E000211D822F762F6A2F11249F5750408AF0AC
:1002F000E1F088234AF0EE0FFF1FBB1F661F771F38
:10030000881F91505040A9F79E3F510570F038C0AA
:1003100082C05F3FECF3983EDCF386957795679556
:10032000B795F795E7959F5FC1F7FE2B880F911D55
:100330009695879597F90895990F0008550FAA0B80
:10034000E0E8FEEF16161706E807F907C0F01216E8
:100350001306E407F50798F0621B730B840B950BEB
:1003600039F40A2661F0232B242B252B21F4089540
:100370000A2609F4A140A6958FEF811D811D0895DD
:1003800097F99F6780E870E060E008959FEF80EC48
:10039000089500240A9416161706180609060895EB
:1003A00000240A9412161306140605060895092E51
:1003B0000394000C11F4882352F0BB0F40F4BF2BC0
:1003C00011F460FF04C06F5F7F4F8F4F9F4F089500
:1003D00057FD9058440F551F59F05F3F71F04795F6
:1003E000880F97FB991F61F09F3F79F087950895DB
:1003F000121613061406551FF2CF4695F1DF08C0FA
:10040000161617061806991FF1CF86957105610516
:1004100008940895E894BB2766277727CB0197F9BE
:060420000895F894FFCFDF
:00000001FF
