:100000000C9434000C94EA000C9446000C944600C6
:100010000C9446000C9446000C9446000C94460048
:100020000C9446000C9446000C9446000C94460038
:100030000C9446000C9446000C9446000C94460028
:100040000C9446000C9446000C9446000C94460018
:100050000C9446000C9446000C9446000C94460008
:100060000C9446000C94460011241FBECFEFD8E03C
:10007000DEBFCDBF21E0A0E0B1E001C01D92A730FE
:10008000B207E1F70E9485000C946C020C9400000A
:10009000BC0180E090E00E94570120E030E040EA9F
:1000A00050E40E94B80120E030E040E85AE30E94AA
:1000B000B801609300017093010180930201909355
:1000C00003010895EAE7F0E0808183608083ACE774
:1000D000B0E08C9180648C938081806880830895E7
:1000E000ECE7F0E09081907F90839081892B808372
:1000F000EAE7F0E0808180648083808184FFFDCF27
:10010000809178009091790008950E9497000E9454
:10011000A3000E949F000E946200E4E6F0E080815C
:100120008E6E808383B7817F846083BFFBCF78949A
:10013000E89AE9E6F0E0808181608083089584B1E7
:100140008E6184B90895209A8AB1806E8AB9089523
:10015000009759F4289A2FE38DE093E021508040D6
:100160009040E1F700C0000008956BB128E030E056
:10017000281B390B41E050E0CA0102C0880F991FCB
:100180002A95E2F7862B8BB92FE38DE093E021507F
:1001900080409040E1F700C000000895009711F4FE
:1001A000289808956BB128E030E0281B390B41E016
:1001B00050E0CA0102C0880F991F2A95E2F7809586
:1001C00086238BB9089595B180910601880F892BFC
:1001D00085B908951F920F920FB60F9211240F93B5
:1001E0001F932F933F934F935F936F937F938F93BF
:1001F0009F93AF93BF93CF93DF93EF93FF934A9B6C
:100200003DC010920601C0E0D0E001E010E0CE0158
:100210000E94A800CE010E94700090930501809377
:10022000040180910401909105010E9448006091B1
:10023000000170910101809102019091030120E081
:1002400030E040E250E40E945301882364F420919E
:100250000601C8010C2E02C0880F991F0A94E2F70C
:10026000820F80930601CE010E94CE002196C430F9
:10027000D10569F6809106010E94E300FF91EF919C
:10028000DF91CF91BF91AF919F918F917F916F91AE
:100290005F914F913F912F911F910F910F900FBE42
:1002A0000F901F90189540D008F481E00895E894CD
:1002B00009C097FB3EF490958095709561957F4FAE
:1002C0008F4F9F4F9923A9F0F92F96E9BB2793955C
:1002D000F695879577956795B795F111F8CFFAF46C
:1002E000BB0F11F460FF1BC06F5F7F4F8F4F9F4F9D
:1002F00016C0882311F096E911C0772321F09EE8FB
:10030000872F762F05C0662371F096E8862F70E060
:1003100060E02AF09A95660F771F881FDAF7880F3A
:100320009695879597F90895990F0008550FAA0B90
:10033000E0E8FEEF16161706E807F907C0F01216F8
:100340001306E407F50798F0621B730B840B950BFB
:1003500039F40A2661F0232B242B252B21F4089550
:100360000A2609F4A140A6958FEF811D811D0895ED
:100370000BD078C069D028F06ED018F0952309F022
:100380005AC05FC01124A2C07ED0A0F3959FD1F3C4
:10039000950F50E0551F629FF001729FBB27F00D33
:1003A000B11D639FAA27F00DB11DAA1F649F662788
:1003B000B00DA11D661F829F2227B00DA11D621FD7
:1003C000739FB00DA11D621F839FA00D611D221F91
:1003D000749F3327A00D611D231F849F600D211D75
:1003E000822F762F6A2F11249F5750408AF0E1F018
:1003F00088234AF0EE0FFF1FBB1F661F771F881F61
:1004000091505040A9F79E3F510570F014C05EC056
:100410005F3FECF3983EDCF3869577956795B7954B
:10042000F795E7959F5FC1F7FE2B880F911D969575
:10043000879597F9089597F99F6780E870E060E0E5
:1004400008959FEF80EC089500240A94161617066D
:1004500018060906089500240A94121613061406B5
:1004600005060895092E0394000C11F4882352F018
:10047000BB0F40F4BF2B11F460FF04C06F5F7F4FD0
:100480008F4F9F4F089557FD9058440F551F59F0B7
:100490005F3F71F04795880F97FB991F61F09F3F71
:1004A00079F087950895121613061406551FF2CF9A
:1004B0004695F1DF08C0161617061806991FF1CFEA
:1004C00086957105610508940895E894BB27662711
:0C04D0007727CB0197F90895F894FFCF2F
:00000001FF
